:020000040000fa
:080000000002040000000000f2
:020000040000fa
:100008009a0200009a0200009a0200009a02000078
:100018009a0200009a0200009a0200009a02000068
:100028009a0200009a0200009a020000806c000008
:100038009a0200009a0200009a020000a46c0000d4
:100048009a0200009a0200009a0200009a02000038
:100058009a0200009a0200009a0200009a02000028
:100068009a0200009a0200009a0200000e6d000039
:10007800d86c00009a0200009a0200009a02000060
:100088009a0200009a0200009a0200009a020000f8
:100098009a0200009a020000846d00009a02000093
:1000a8009a0200009a0200009a0200009a020000d8
:1000b8009a0200009a0200009a0200009a020000c8
:1000c8009a0200009a0200009a0200009a020000b8
:1000d8009a0200009a0200009a0200009a020000a8
:1000e8009a0200009a0200009a0200009a02000098
:1000f8009a0200009a0200009a0200009a02000088
:100108009a0200009a0200009a0200009a02000077
:100118009a0200009a0200009a0200009a02000067
:100128009a0200009a0200009a0200009a02000057
:100138009a0200009a0200009a0200009a02000047
:100148009a0200009a0200009a0200009a02000037
:100158009a0200009a0200009a0200009a02000027
:100168009a0200009a0200009a0200009a02000017
:100178009a0200009a0200009a0200009a02000007
:100188009a0200009a0200009a0200009a020000f7
:100198009a0200009a0200009a0200009a020000e7
:1001a8009a0200009a0200009a0200009a020000d7
:1001b8009a0200009a0200009a0200009a020000c7
:1001c8009a0200009a0200009a0200009a020000b7
:1001d8009a0200009a0200009a0200009a020000a7
:1001e8009a0200009a0200009a0200009a02000097
:0801f8009a0200009a020000c7
:020000040000fa
:100208009a0200009a0200009a0200009a02000076
:100218009a0200009a0200009a0200009a02000066
:100228009a0200009a0200009a020000806c000006
:100238009a0200009a0200009a020000a46c0000d2
:100248009a0200009a0200009a0200009a02000036
:100258009a0200009a0200009a0200009a02000026
:100268009a0200009a0200009a0200000e6d000037
:10027800d86c00009a0200009a0200009a0200005e
:100288009a0200009a0200009a0200009a020000f6
:100298009a0200009a020000846d00009a02000091
:1002a8009a0200009a0200009a0200009a020000d6
:1002b8009a0200009a0200009a0200009a020000c6
:1002c8009a0200009a0200009a0200009a020000b6
:1002d8009a0200009a0200009a0200009a020000a6
:1002e8009a0200009a0200009a0200009a02000096
:1002f8009a0200009a0200009a0200009a02000086
:100308009a0200009a0200009a0200009a02000075
:100318009a0200009a0200009a0200009a02000065
:100328009a0200009a0200009a0200009a02000055
:100338009a0200009a0200009a0200009a02000045
:100348009a0200009a0200009a0200009a02000035
:100358009a0200009a0200009a0200009a02000025
:100368009a0200009a0200009a0200009a02000015
:100378009a0200009a0200009a0200009a02000005
:100388009a0200009a0200009a0200009a020000f5
:100398009a0200009a0200009a0200009a020000e5
:1003a8009a0200009a0200009a0200009a020000d5
:1003b8009a0200009a0200009a0200009a020000c5
:1003c8009a0200009a0200009a0200009a020000b5
:1003d8009a0200009a0200009a0200009a020000a5
:1003e8009a0200009a0200009a0200009a02000095
:0803f8009a0200009a020000c5
:020000040000fa
:100400006feb21000e7f22000e018800000000002b
:10041000000020000000e000020032000001200087
:10042000200288000c000700c0ee2500010020001b
:1004300011000700000020000000e0000200320070
:100440000000020000000000d02c020000000000ac
:100450000040da000000fe004440a900809d20001a
:100460000000e0000300320000002000a00188002e
:100470004440a80000000600910188008000780038
:100480000000eb0015003700e280400032a0b4000d
:100490009101ba00e280400032a0b4009102ba009b
:1004a000e280400032a0b4000002eb00472bde00e7
:1004b000f507b200602ce10004003a000059eb009f
:1004c0008301e900fdff3e00040037006128e100e0
:1004d000010032000082eb00040007001101ba00a5
:1004e0000200e000e8ff3a00000006003159ba00bf
:1004f0008301e9000c0032002159ba008301e900b0
:10050000080032000400e00003003a00e2804000ee
:1005100032a0b400f5ff370011d9ba008301e90019
:10052000faff3a008100e800e180400032a0b40008
:10053000000006000040da000000fe000a00fa0099
:10054000e20f500022003e00a4f58000e10f5200af
:1005500006003200872320004623200024232000a9
:1005600005232000e08f530004003a00872220007a
:10057000462220002422200005222000000028001e
:100580001500600003003a00800b78000700280087
:10059000958a7300054020009482620001003a00b1
:1005a00014a0a000820278000600370094037800af
:1005b0000710b200fdff3200b103fb00070b78000b
:1005c0008502e900e08f5200f8ff3a00080037008a
:1005d00034002000c0bf9f00e2bf9f00b4bf9f0057
:1005e000d1bf9f006a805700f00b07006fb99700da
:1005f000020078000080fa00000006000000fa0007
:10060000000000003410800061026200e00f520020
:10061000fcff3a003410800062026200e00f5200da
:10062000f8ff3a003410800064026200e00f5200cc
:10063000f4ff3a003410800068026200e00f5200bc
:10064000f0ff3a003410800070026200e00f5200a8
:10065000ecff3a0045108000040024000482620090
:10066000e00f5200e7ff3a000080fa0000000600a9
:100670000000fa0000000000340480006202620002
:10068000e00f5200fcff32008620a9000080fa0033
:10069000000006000200fa00004f78009e42780039
:1006a0000582fb001410880045108000040820001b
:1006b00004826200e00f52000200320000c2eb0030
:1006c000010037000042eb00044078000080fa008f
:1006d000000006000000fa0006a2a8000682a8009a
:1006e0000080fa00000006000400fa00000f780005
:1006f000110798001e029000241088001e02780046
:10070000341088000080fa00000006000000fa00a3
:100710000622a8000080fa00000006000000fa008f
:100720000642a8000080fa00000006000200fa005d
:10073000000f78008460a9001e027800044278004f
:100740006742620067426200674262000482fb0007
:10075000670262004c22dd0026058000f5ff2800bc
:100760008502630005027200240588009e0278005d
:10077000688262004322de00044278006142620027
:100780000482fb00610262004322dd00a6048000b7
:1007900075ff2f008502630005027200a404880023
:1007a0000080fa00000006000200fa00000f780046
:1007b00084e0a9001e0278000442780067426200cb
:1007c00067426200674262000482fb0067026200c7
:1007d0004c22dd0036058000f5ff2800850263000d
:1007e00005027200340588009e027800688262006b
:1007f0004322de0004427800614262000482fb0072
:10080000610262004722dd00a6048000f5f72f0098
:100810008502630005027200a40488000080fa00cb
:10082000000006000400fa00000f7800110798008d
:100830000002eb00040888001e02900014088800e3
:100840001e027800240888000080fa0000000600dc
:100850000400fa00000f7800110798000002eb0076
:10086000340888001e029000640888001e02780088
:10087000840888000080fa00000006000800fa00e2
:100880001007980021079800320798003e02900058
:10089000c41188001e029000841188002e0290006e
:1008a0009411880002003700b4118000044f7800d2
:1008b0009411800061026200e00f5200faff3a00da
:1008c00087c0a9000080fa00000006000400fa00ba
:1008d000100798001e029000040f78008411800019
:1008e00066026200e60f52001e003a000c0037005c
:1008f00000000000951180000420200004826200a6
:10090000e00f5200fbff3a001e0290001402780034
:10091000a41188001e0290000482e80014079800c9
:100920001e02900014027800e00f5200f0ff3a001f
:100930001100370000000000951180000420200005
:1009400004826200e00f5200fbff3a001e027800b2
:10095000144278000402fb00a41188001e0fe80076
:1009600001003700000000001e02780014427800e9
:10097000e04f5200efff3a000080fa00000006004e
:1009800014002000640237004f89de0082017800e5
:100990009f0237006011b800ad023700040020004c
:1009a0005d023700889fbe008a9fbe008c1f7800c2
:1009b000110307001803330003866c006450e10044
:1009c000240032006420e100270032006150e10081
:1009d000220032006120e100210032008b854200bc
:1009e000eb07b1000134b800003ab8000804420037
:1009f00089844a00013ab8000030b800888040007d
:100a000009014a00040033000000400081804800d2
:100a1000020149008b05e900c909dd00830170006e
:100a20000100320013002000c814de004814dd006d
:100a30004709de001200b200c808de00088470001a
:100a4000b202070001f0a1000cf0a70001f0a00025
:100a5000fa0237006120e100fc0232000801be000a
:100a60000200be00f7ff37006150e100fcff3a00d2
:100a7000f60237000c00fa00889fbe008a9fbe0075
:100a80008c9fbe00dc0207000206be0084057800d1
:100a90000200be0002002000f801070005003a0035
:100aa0008b02b30012002000f401070001003a009d
:100ab000f8856d000c01be00c60007000800be00ee
:100ac0009b0032000b08a3009e003a000df0a70027
:100ad0000be0a00009f0a7000bf0a00009f0a100b6
:100ae0000801be00bb0007000bf0a6009500320015
:100af00001003c000bd0a0008acf7500b20033008b
:100b00006000b8006250e10099003900a1003e0089
:100b10000b28a300a2003a000bf8a3000600320045
:100b20000b58a300a70032000801be00a90007006f
:100b30000800be00940032000800be00c00007009c
:100b40000004be00050578000bf0a7000b30a600de
:100b50000bf0a1005b079800324f200053f32300f5
:100b600087ff070005003d000800be0012002000be
:100b7000b90207000004be000a05e9004a07980010
:100b80006150b90080ff0700008fbe000c01be005d
:100b900084ff0700fd010700300798000100e00016
:100ba00002003d0060001000e0801800f2ff270006
:100bb000820f5000e08f580064003e000c00be0021
:100bc000f201070020079800f2072000820f500072
:100bd000e08f580005003c0012f82f00f3ff2f00b3
:100be000820f5000838f580009003d000a00e0008a
:100bf0000300320001003c000201ea000205780017
:100c00006000b800200798003a07980019003700e4
:100c10003e0090006100b9005bff0700809fbe00ae
:100c20000c00be004109dd004811de007208b10071
:100c3000920107000005be001e01be0059ff07001b
:100c40004f01be008b000700809fbe000c00be005d
:100c50000a01be00870007001e01be0051ff070009
:100c60004f01be00840007008221270013f32300f8
:100c70004cff07000005be002e0090006100b90087
:100c800041ff070001f0a2000c01be007a0007003e
:100c90000006be000800be00910207000c01be0065
:100ca00040ff07000a01be0073000700809fbe00de
:100cb0004a0007002e0590000af0a7000a05ea0086
:100cc000050037000800be000801be0035ff070020
:100cd0000004be000c00be000801be000a00a70010
:100ce00030ff07000006be000a05d100f5ff3a00fc
:100cf0005e01900002e0a600030037000001be0084
:100d000036000700b90007000004be004f00be0017
:100d1000f80007000801be0022ff07003e01900016
:100d20004d020700de0590000bf0a70001f0a200c5
:100d30004f06be004f05be004f04be000080fa0003
:100d40000000060025000700f9ff37002700070014
:100d50006000b8000bd0a7000bc0a0000be0a700fc
:100d60000bc0a2000bc0a70001f82700f0ff37005e
:100d70000df8a300020032001e0007001900070052
:100d80000bf8a300eaff32000b30a70001f0a2002d
:100d9000e7ff37000df8a300f9ff3a00f7ff37002f
:100da0000801be000b000700e6ff320001003c0016
:100db0000df0a2006000b8000df0a70009000700c8
:100dc000dbff37000b000700f1ff2700f0ff2f00cb
:100dd000d7ff370001000700e9fe370001f82300c4
:100de0000000050001f82700000005002002200097
:100df0000100370010022000e0e288000000060039
:100e00006022b800060220000000d0008180d200dd
:100e10000482d2008582d2000000a00002025200ab
:100e200083825a00030031000202420083824a009a
:100e30000000a1000603e900f3ff3a0000000600ed
:100e40000003be00d70107006220e100020032006b
:100e50000600be0005000500e507b100f107b2007d
:100e600004f023008480700007f0a70001f0a000c8
:100e70002400050003f0a200889fbe008a9fbe00e8
:100e80008c1f7800dc010700e30133006450e100af
:100e90004f0032006420e1005200320003826c00f7
:100ea00007003b000905d0000306d000820f540064
:100eb0000c065d0002003900020032008901780052
:100ec000030678008582550004003d000003fd0004
:100ed0008103fd008502ea008b854200840f7200c9
:100ee00002003b0060001000e08018006011b800b4
:100ef0000005eb007a28e1000a00390006007800be
:100f0000c75ddd00f707b200878075002d00370050
:100f1000828171000a017800610560008180d10042
:100f20000080d3008502e900f9ff3b000604400081
:100f30008784480002003b0060041400e0841c0029
:100f40000988a300070032008a8171008281710044
:100f5000610164008904d1000884d3008b05e80096
:100f6000170037000978a30013003a000b00e000d7
:100f7000130034008b05e9000804440089844c0008
:100f80000a4474000978a3000d003a000b00e00049
:100f9000070034008b05e9000804440089844c00f4
:100fa00001003a000b0020000978a300f7ff32008f
:100fb0000001eb0002003700828171000a01780015
:100fc000520107000cf0a70001f0a0009b013700c0
:100fd0006420e10002003a00838f6c009b01330023
:100fe0000801be000200be0094013700889fbe00c9
:100ff0008a9fbe008c1f78007f01070086013300a6
:1010000003866c006450e1002e0032006420e10091
:10101000330032006150e1002f0032006120e10016
:101020003100320085855500eb07b0000900200033
:1010300008042000050037000804440089844c009f
:101040000a0031000603430087834b000001530070
:1010500081815b00f8ff33000203be000800a0009e
:101060000804440089844c00f6ff3900c639dd00cd
:101070008301730001003200130020008904d100b5
:101080000884d3000998a300050032000800a700d7
:101090000300a0008904d1000884d3008b05e80078
:1010a0008904d1000884d3000001eb000281d20042
:1010b0001601070001f0a1000cf0a70001f0a0004c
:1010c0005e0137006420e100600132000801be00cb
:1010d0000200be00f7ff37006120e1005b01320033
:1010e0006000b800f3ff37000000200001f827007f
:1010f000f0ff3700889fbe008a9fbe008c9fbe0015
:101100000004be00270107000800be006420e100c3
:1011100048003e005500320072212700132b2400a6
:101120009800070047003c000800be00c2ec280001
:10113000e32c2c0012fe0700470035000800be001b
:1011400001f0a10002002000033823000cfe07007c
:10115000430035000800be00b2a32a0083fb230031
:1011600010fe07000200200003f0230001f0a7009a
:1011700003f0a00040ff0700840007000005be0048
:1011800001fe070001f0a2000006be0002002800d8
:1011900013f3230003fe07000801be0036ff07001b
:1011a000809fbe000c00be0032082800e3952b0093
:1011b000fcfd07004f01be002fff07000006be0028
:1011c0000001be00f7fd0700809fbe0042412500e0
:1011d00083b82300f3fd07000200200003e823008a
:1011e00025ff07000c01be00eefd07000006be0053
:1011f0004f00be00f2f92b00c3d42300e9fd070025
:101200000200200003f023001bff07000c01be00ba
:1012100018ff07000001be000c00be0073ff0700ae
:101220000200200003f0230013ff070061014500c6
:10123000090107004f06be004f05be004f04be0067
:101240000000060001f82700000020002202200014
:10125000e2e28800f7ff37006000b800fbff3700cc
:1012600001f8230000002000f2ff370009f8a30076
:10127000f0ff32006000b800eeff3700889fbe002c
:101280008a9fbe000003be00c600070085057800e7
:1012900082815200020020006220e10004003a0036
:1012a000f307b100040035007718e10004003500b1
:1012b0000600be00140037006000b8000f003700c1
:1012c000f50f2000faff2f008502d1000a85d30018
:1012d0008301e900fcff3b0081846200000465009b
:1012e000890f7400f2ff32008582ea000a85ea0065
:1012f00081846200000465008400070007f0a700f5
:1013000001f0a0000081eb000200e0004f05be00ec
:101310004f04be0000000600889fbe008a9fbe00ea
:10132000841f7800b40007004f00780011003300dc
:10133000f0ff2f00838f6c0006003b000405650062
:101340000a00a7000800370009f0a60010002000de
:1013500008003700820f5400838f5c0003003900bf
:101360001000200001003e000000200009f0a7004e
:101370000000ea004f05be004f04be000000e00080
:1013800000000600f4ff2f00e3ff37000001be005d
:10139000840007000470a70003f0a1006509b100f4
:1013a000160032000d0035006828e1000600350007
:1013b000f0ff2f00f1ff27000300e00013003b00c7
:1013c0000100280000000500000040008180480066
:1013d0008502e900fcff3a0008003700f88f420060
:1013e00002003c008000eb00000005008100d100fd
:1013f0000080d3008502e800fcff3a000300e00013
:1014000002003b0060001000e080180000000600b1
:10141000881f7800030478000300e00007003d0007
:1014200060001000e080180060011900e0811900e0
:1014300002003b0001f02d0003003700040007000c
:1014400008f0a70001f0a0004f047800000006009b
:10145000889fbe008a9fbe00008270000402710057
:1014600004827100260032000004be000200be00ab
:101470006011b8006b092000950220000182cf00a6
:101480000a0039000541b1000082cf000700390091
:101490000541b1000982cf00040039000541b100c7
:1014a0000882cf00010039000541b1000542520019
:1014b000120032000a003b00828171006101640069
:1014c0008100d1000080d3008984d3000884d30038
:1014d0008b05e8000442e800f7ff3a0007003700f8
:1014e0000804440089844c000000480081804800c2
:1014f0008b05e9000442e900f9ff3a000300070008
:101500004f05be004f04be00000006008100200011
:10151000618055000b003d000b00200061fe2f0094
:101520000100e1001d00340082817100610164004e
:101530008904d1000884d3000000e800faff3a00d3
:101540007100200061006400030070000200600070
:101550000900320061044400e0844c000988a500c1
:10156000050032008b05e8006808e10002003a003f
:101570008904d1000884d300f20f20000258e10052
:1015800005003d00c75ddd00f907b20089807500e8
:1015900008007800000006000bf827008b00780098
:1015a00000000500c70ade00f107b200f50fb20027
:1015b00008003200e1cf4200020032000170a000ba
:1015c00024000500810f70000100320004080500ae
:1015d00044000500810f700002003a00140005006d
:1015e0008502e9000000400081c04800fcff3b008c
:1015f0000170a000240005000004be00e9ff070000
:101600000003be000405be000200be00e5ff0700a7
:10161000844f7500000006000200be006450e10027
:10162000050036006420e100020036000968a300ce
:1016300001003a000800be000160a0004f067800db
:101640004f05be004f04be0000000600f0ff2f0053
:10165000f1ff2700f9ff37000003be00d1ff0700ac
:101660006220e100020032000600be000000060019
:1016700085024100e30f20000328e10005003c0043
:10168000a3fe2f000328e10007003d000500200015
:1016900001003700f50f200020022000e0e2880062
:1016a0006000b8000800370013002000838152005a
:1016b00005003d008100d1000080d3008301e800d7
:1016c000fcff3a0005002000c72add00f107b20048
:1016d0008580700007f0a70001f0a0000000060060
:1016e000889fbe008a9fbe008c9fbe00d4fd07006d
:1016f000850478000005be006420e10049003e003a
:101700006220e10003003200090035000bf8a3005d
:10171000440032000bf8a300080032001002200041
:10172000e0e28800f0ff2f00f1ff27003d003700c6
:1017300001f82f00000020003a0037003d000700ac
:10174000ccfd07000006be000a00be00324f20009c
:1017500053f323000bff0700060034000c00be000b
:1017600034000700c3fd07000006be000a00be00eb
:10177000020037008904e9000c00be002d000700bc
:1017800088fc07002b000700bbfd07000001be001e
:101790000c00be0015fe07000005be000001be00e3
:1017a00080fc07000006be00a2f32300430d2c00be
:1017b000b1fd0700809fbe000c00be00d2e32700f1
:1017c000d3f02b0077fc07004f01be0007fe070097
:1017d0000006be000a01be0072fc07000a01be003e
:1017e000a5fd07000006be006148b90066fc0700c1
:1017f0000005be0032082800e3952b0069fc0700b5
:101800000c01be009cfd07000006be000a00be00e1
:101810000200280013f3230062fc07000c01be0045
:1018200095fd07004f06be004f05be004f04be00e9
:101830000000060003f0230002000500000278000b
:1018400002003700315a78000201e900e00f510030
:10185000fcff3a000000060000027800020037009a
:10186000015a78000201e900e00f5100fcff3a0044
:10187000000006000c00fa00889fbe00f4ff27005d
:1018800000047800d4bf9f008004eb0088bf9f0055
:1018900099bf9f00a8bf9f00240c200078815700ab
:1018a000b4bf9f00cfb0970070805700c4000700fe
:1018b0000fba9700094a78000fba97000800520043
:1018c0004f04be000080fa0000000600d4c6b3003a
:1018d0000800fa00889fbe000084fb008a9fbe00bb
:1018e000844f500034003600e9d021004b06200020
:1018f000110009000b84d800720040004300dd0095
:1019000000804400810578006022b80006002000b5
:1019100007fe2300aa0020005001be004000be00c8
:10192000e70807000002be00110009008a85d80000
:1019300080057800e9854500c35ddd008b854400a6
:101940000203be0084bf9f0095bf9f00a6bf9f00fb
:10195000b7bf9f003b02be002b03be000fb897002d
:101960009fb897002fb99700bfb99700d408070018
:101970000002be00110009000a84d80001047800aa
:101980004344dd00888444000203be0084bf9f00fe
:1019900095bf9f00a6bf9f00b7bf9f003902be0042
:1019a0002903be000fb897009fb897002fb9970082
:1019b000bfb997001d003700ea4f500013003600f2
:1019c000aa002000e9d02100110009000a84d800f3
:1019d00001057800690440004355dd004344dd0003
:1019e000088444008a8444006022b8000600200075
:1019f00007fe23003800be002801be00b008070023
:101a00003902be002903be0008003700e4d02100df
:101a10004344dd00080442006022b80006002000b4
:101a200007fe23003800be002801be00a4080700fe
:101a30004f05be004f04be000080fa000000060003
:101a4000d4c6b3000800fa00889fbe008a9fbe007b
:101a5000e04f500022003d000040ea000004fb007f
:101a6000844f50000a00340044062000a9002000e2
:101a7000110009000404d800ead021001100090077
:101a80008900d800e9004000c308dd0020003700cd
:101a9000ea4f50000f003400a4002000110009009c
:101aa0000404d800e4d02100690040004300dd00b8
:101ab00000004200430cdd00080242005001be005d
:101ac0004000be005403be004402be007c08070074
:101ad000370037004344dd00e4d0210031003700f7
:101ae0000004fb00844f5000230034004406200013
:101af000a9002000110009000404d800eac5210053
:101b0000110009008900d800e9004000c308dd0089
:101b1000810045008b0920008a8545003102be0006
:101b20002103be003b00be002b01be00640807007d
:101b30000002be00110009000904d8000104780069
:101b40004344dd00080545000203be0084bf9f003a
:101b500095bf9f00a6bf9f00b7bf9f003a02be007f
:101b60002a03be000fb897009fb897002fb99700bf
:101b7000bfb99700d5ff3700ea4f50000700340087
:101b8000a4002000110009000404d800e4c52100cd
:101b9000690040004300dd00c5ff37004344dd001d
:101ba000e4c52100080442003800be002801be0040
:101bb0004f05be004f04be000080fa000000060082
:101bc000ef05b000889fbe008a9fbe008c9fbe00bc
:101bd000000678008e1f78000007eb00e19f9f0051
:101be00082af9f006000b8006011b80080a79f001e
:101bf00091a79f00a2a79f00b3a79f00d905370018
:101c0000ef98970054c2b3008100e800e19f9f0065
:101c1000844f500006003a00810278008006eb00f5
:101c200007c3b30000c2b300b1c2b3000e00370057
:101c30003c0290000404b200040032001c02780050
:101c4000004a7800040ee800050037000000fb00a1
:101c50008c007800cf050700e10f4000c10532007d
:101c60000e07e800bf05370005037800d2c2b300b5
:101c700035427800824f52000900320005003c00d6
:101c8000804f520008003200814f52000c003a0091
:101c900007003700874f520009003a00060037005e
:101ca0000d30a000f0ff37000d00a000eeff370060
:101cb0000d10a000ecff37000d20a000eaff370058
:101cc000e2826600010032000d00a100e882660099
:101cd000010032000d20a1008402fb000503b100c9
:101ce000e98f52000d003e00860278008003eb0071
:101cf0003502fb006a3bb9000403b10086034200d1
:101d00001502fb00050378000403b100e90f52003f
:101d1000f7ff360097b79f000a0037008002eb00fc
:101d200095b79f00a5c2b300854f520005003a0049
:101d30008fab97000603e8004700780087af9f004d
:101d400090b79f00e4c2b300964f120017003a000c
:101d50000de0a00064425200d64f12000300320092
:101d6000060278008003eb00090037000fa99700f6
:101d70000603e800c201780082af9f00d3af9f0046
:101d8000c7c6b3000d0037006a3bb9008683420026
:101d900004037800b402fb000503b100e98f520090
:101da000f9ff3600d7af9f00f5ff37000002eb00c8
:101db0000dc0a000d4af9f00f1ff3700860278006d
:101dc0003542780005037800874f52002d0032001d
:101dd000e59f9f00c5c6b300854f520014003c002c
:101de000e8c25200854f52002400320009003c0036
:101df000ecc25200854f52002e003200ebc242006e
:101e0000854f52009a003200e04f52005a053200ce
:101e1000b800370065c6b300854f52001f0032007e
:101e2000e3c24200854f5200b2003a00130037006f
:101e300035c7b300854f52002200320007003c0036
:101e4000e4c25200854f5200170032008542e8007c
:101e5000854f5200a7003a001600370055c7b3005f
:101e6000854f5200a8003200e3c24200854f520065
:101e7000a0003a00e4579f0010003700e4579f008d
:101e8000a3003700f0826600040120000100320048
:101e9000040028008d067200c8ff3700e4579f0039
:101ea0000da0a0009a003700e4579f000d60a0002d
:101eb00097003700e4579f000d50a0000d70a00060
:101ec000930037008faa9700e4579f0045027800df
:101ed00085af9f0004047800e00f520001003a0033
:101ee00008e82100880278000002eb0001003700ba
:101ef0000402e80065437a00e04f5300fcff3a001b
:101f0000840478005fab9700e00f530003003200b9
:101f1000890f530001003100860478000002eb00b5
:101f20009fb39700898f5300010036000982530048
:101f3000e8866600ddaf9f000d007800e00f5000de
:101f40002c003a008406780004c2b3001000370069
:101f5000bc0290000504b200040032009c0278002c
:101f6000844a7800050ee8000700370084bf9f0010
:101f70008c00780000022000060507000fba9700c9
:101f8000e10f4000010032000e07e8008d06e90075
:101f9000e08f5600eeff3a000082eb00150037009c
:101fa0003c0290000404b2000900320008027800ec
:101fb0001c037800b4427800054b780004047800d4
:101fc000060ee800e0cf520008003a000a00370091
:101fd000080278008c0078003400fb0004047800cc
:101fe000ec040700e10f4000030032000e07e80098
:101ff0000100370084067800090278008404e900b3
:10200000e00f5200e6ff3a000d027800dfa89700cb
:10201000e08f5000d30432008406780004c2b3007d
:1020200010003700bc0290000504b200040032002a
:102030009c027800844a7800050ee800070037000b
:1020400084bf9f008c00780000022000d1040700ac
:102050000fba9700e10f4000010032000e07e800c0
:102060008d06e900e08f5600eeff3a00bd04370010
:102070000fa99700f08266004202780082af9f00ad
:1020800004007800cf80de00010178008201780032
:1020900090af9f00a1af9f00b2af9f00c3af9f0062
:1020a0004800de00480add0000007200e0579f0093
:1020b000e08f520009003200e04f5000070032006c
:1020c000e14f400005003200afd29700f0579f006b
:1020d000855f9f0029002000030037002fd3970061
:1020e00019002000f6579f0078f92f000f044400d4
:1020f00084ff3700e4579f0068f92f000f04440065
:10210000190020007fff3700e4579f000d0cb3003b
:102110000470200004826600650232000400210081
:10212000048266000200320067002000d7af9f00e3
:1021300070826600090032000faa97004401be00b9
:102140004400be0084af9f0090af9f00a1af9f00ee
:10215000b2af9f00c3af9f000a0037008faa97005d
:102160004500be0085af9f003d0607000002be008f
:102170000203be0094af9f00a5af9f00b6af9f00c3
:10218000c7af9f006022b8006033b8001fa8970057
:10219000afa897003fa99700cfa997008205070035
:1021a000e00f50000a003d001fa89700afa897005d
:1021b0003fa99700cfa9970003f0a20090af9f001e
:1021c000a1af9f00b2af9f00c3af9f003d00b3001f
:1021d0000002eb001fa89700afa897003fa9970047
:1021e000cfa99700d48f9f006022b8006033b80059
:1021f000d1050700e00f500034003200a4f92f0091
:102200000f0242001fa89700afa897003fa99700b0
:10221000cfa997008d0607005f889700a4002000d3
:102220000000e9006300b900110009000400d800b3
:10223000d08f9f00e00f500002003d000000e90039
:10224000d08f9f005f8c97000840ea00fcfd0700dc
:102250001faa9700afaa97003fab9700cfab97009c
:10226000970607000002be000203be0084a79f007d
:1022700095a79f00a6a79f00b7a79f006022b80060
:102280000600200007ff230047050700e00f50006d
:1022900002003d000804e9000b0037006022b8008e
:1022a00006002000470224000fa097009fa097007f
:1022b0002fa19700bfa1970040050700e00f500035
:1022c000020035000804e800d88f9f00dfaa9700bd
:1022d000f88f52000f003c00054078007bfd07009e
:1022e0000002be000203be001fa89700afa897001f
:1022f0003fa99700cfa99700ae0407000002be00d7
:102300000203be0094af9f00a5af9f00b6af9f0031
:10231000c7af9f005f8c9700e90f540015003c0089
:102320006022b8006033b8001fa89700afa89700dc
:102330003fa99700cfa997007f050700e00f500045
:10234000320032001fa89700afa897003fa997005e
:10235000cfa99700e1050700e00f5000e08f58007b
:10236000e00f5900e08f590028003a00e10f5400b7
:10237000260034000400200005002e00b6e02200f4
:10238000170124000fa097009fa097002fa197008e
:10239000bfa1970004050700e00f500002003d00b8
:1023a000730454000100370072045400d88f9f005a
:1023b0002f589700a2fd07000002be000203be00d6
:1023c0001fa89700afa897003fa99700cfa9970033
:1023d00084a79f0095a79f00a6a79f00b7a79f006f
:1023e000fb040700bd0507000205be000004be0097
:1023f0006000b8006011b80090af9f00a1af9f00cf
:10240000b2af9f00c3af9f00170037001fa897000f
:10241000afa897003fa99700cfa99700af05070085
:102420000205be000004be00dd0507000002be007c
:102430000203be001fa89700afa897003fa997000e
:10244000cfa99700930607000002be000203be005a
:1024500094af9f00a5af9f00b6af9f00c7af9f008e
:102460000002eb00d48f9f0061dc210010c0b3009c
:10247000080037003102be003103be000440e10015
:1024800005c8e10006d0e10007d8e10003003900eb
:102490000040e800f44f5000f6ff3a009fb297006a
:1024a0005f8a97005fab970004825200e0579f005d
:1024b000860252000002fb000482520094b79f0083
:1024c000e00f5300020032000402e90094b79f00bd
:1024d00063826600030032009fb397008703e90020
:1024e00097b79f00648266004500320062826600f2
:1024f000e1826600e00f5200110032003c029000c1
:102500000404b200080032001c037800b4c2b30017
:10251000e08f52000100320004c2e800044b780052
:10252000060ee80015003700b0022000e08f5200d0
:10253000010032000080e8008c0078000c003700b9
:10254000e08f5200200032003c0290000404b200f0
:10255000050032009c02780004c2b300844a78006f
:10256000050ee800050037008c007800000220000e
:1025700088030700e10f4000130032000e07e80057
:10258000110037003c0290000404b2000400320045
:102590001c027800054a7800040ee80007003700a6
:1025a000f5b79f008c007800000320007903070036
:1025b000ffb29700e10f4000010032000e07e80073
:1025c0008904e90006003700c8a79f00d9a79f002b
:1025d000eaa79f00fba79f009fb4970005c3b30025
:1025e000e08f5400e7ff3c0099b79f004fa497008d
:1025f000dfa497006fa59700ffa597006e00370036
:10260000688266001f003a00110037003c0290000b
:102610000404b200040032001c027800054a78006d
:10262000040ee80007003700f5b79f008c00780023
:102630000002200057030700ffb29700e10f40009f
:10264000010032000e07e8008904e90006003700a7
:10265000c8a79f00d9a79f00eaa79f00fba79f00dc
:102660009fb4970005c2b300e08f5400e7ff3c0021
:1026700099b79f004fa49700dfa497006fa597001c
:10268000ffa5970062826600e1826600e00f5200bb
:10269000110032003c0290000404b2000800320035
:1026a0001c037800b4c2b300e08f52000100320076
:1026b00004c2e800044b7800060ee8003d00370035
:1026c000b0022000e08f5200010032000080e800dc
:1026d0008c00780034003700e08f52003600320062
:1026e0003c0290000404b200050032009c02780015
:1026f00004c2b300844a7800050ee8002d003700bc
:102700008c00780000022000270037003c02900077
:102710008502fb000404b20013003200e2db21005a
:10272000c32add00850241009c0078005503be00ed
:102730004502be00c1a79f000800be000a01be00fe
:1027400087060700a4002000050020006033b800c1
:102750008a0607004fa2970005c3b300054a400050
:10276000040ee80013003700e6db2100c32add0079
:10277000850243000800be000a01be005503be00ea
:102780004502be0076060700a400200005002000d8
:102790006033b800790607008c007800040320003d
:1027a0000002420004007800fa020700e10f400036
:1027b000010032000e07e8006f5297008442e900e2
:1027c000e5579f00e04f5200d0ff3a00110037005c
:1027d0003c0290000404b200040032001c027800a5
:1027e000084a7800040ee800050037008c007800e5
:1027f00000032000e7020700e10f40000100320063
:102800000e07e8005f8a97000402e900d48f9f005a
:102810000100370008c3b3005f8a9700e00f520041
:10282000ebff3c00dfab9700f28f53000300340056
:1028300024c1b300e4579f00020037002fd897004f
:10284000e0579f006f529700dfa897000403fb003a
:1028500006835000c6a79f00e04f52000e003200d2
:102860003c0290000404b200050032001c02780013
:10287000e5c2b300054a7800040ee8000500370001
:102880008c007800e0022000c2020700e10f400047
:10289000010032000e07e8006f50970068fc070047
:1028a0000002be000203be001fa89700afa8970059
:1028b0003fa99700cfa997000105070087040700eb
:1028c000350037003c0290008502fb000404b20092
:1028d00013003200e3db2100c32add0085824100c2
:1028e0001c0178005503be004502be00d2af9f0018
:1028f0000800be000a01be0019060700a40020005f
:10290000050020006033b8001c0607005faa97008e
:1029100005c3b300054a4000040ee8001300370069
:10292000e6db2100c32add00850243000800be006b
:102930000a01be005503be004502be00080607009e
:10294000a4002000050020006033b8000b0607003b
:102950008c0078000403200000024200040078008c
:102960008c020700e10f4000010032000e07e80072
:10297000ef539700e0db21000702fb004322dd005c
:10298000040240000800be000a01be005403be005d
:102990004402be00f90507006f5297000205be0011
:1029a0000004be008442e900e5579f00e04f52005a
:1029b000c4ff3a0011003700bc0290000504b200c9
:1029c000040032009c027800844a7800050ee8007a
:1029d0000700370084bf9f008c00780000032000b0
:1029e0006c0207000fba9700e10f400001003200af
:1029f0000e07e8008904e90006003700cfa497001d
:102a0000d0af9f00e1af9f00f2af9f0083b79f0060
:102a100004c3b300e08f5400e7ff3a005fac9700b7
:102a2000efac97007fad97008fb59700e886660002
:102a30004c0232009fb09700e08f500049023400f2
:102a40000802be000a03be000dc2b3008104780074
:102a50003c0090000004b200040032001c0078002a
:102a60000d487800000ee8000d00370084bf9f007d
:102a7000f5b79f00d6b79f00e7b79f008c0078009e
:102a800000022000430207000fba9700ffb2970030
:102a90005fb39700efb39700e10f400001003200f1
:102aa0000e07e8008904e900e9ff3a002d0237002b
:102ab0008d027800050cb2002a003a00e08f560023
:102ac00005003d000fa997004205be004204be006c
:102ad00082af9f0016003700708266000e00320041
:102ae0000fab97004602be00c4979f00d5979f008a
:102af00086af9f00160290004fa2de00e4979f0071
:102b0000f4979f004f949700df9497006f9597007c
:102b1000ff959700060037000fa897004004780043
:102b200080af9f00cfc4de00090578008a057800d9
:102b3000e00f5400e08f5c00e00f5d00e08f5d006f
:102b400023003d006022b8006033b8003d00b300b0
:102b50000804520089845a000a055b008b855b00db
:102b60001b003700e08f560005003d008fa897003e
:102b70004105be004104be0081af9f001400370034
:102b8000f08266000c0032008faa97004501be005b
:102b9000a4979f0082979f0093979f00b4979f00f0
:102ba00085af9f000f9497009f9497002f959700f3
:102bb000bf959700060037008fab97004704780059
:102bc00087af9f00090020000a0020000b002000b2
:102bd0005fa89700e00f500009003a0011002000a4
:102be000d1af9f00e00f5400e08f5c00e00f5d006c
:102bf000e08f5d00020032000001eb00d2af9f00c9
:102c00008d01780004042000030cb20093af9f00f4
:102c1000848f51002c00320003003c00e08f5100f3
:102c2000080032003c003700040820009faa9700eb
:102c3000848f520010003200040c2000848f520058
:102c400035003a0061dc210010c0b3003102be0043
:102c50003103be000440e10005c8e10006d0e100f8
:102c600007d8e1002b0039000040e800f44f500085
:102c7000f6ff3a002700370010c0b300040120001f
:102c8000050020006033b8000440e10005c8e10001
:102c900006d0e10007d8e1001e0039004100200005
:102ca0000402d0008582d2000683d2008783d2003e
:102cb0008100e900faff3a000040e800f04f5000c0
:102cc000f1ff3a001300370010c0b3008400200069
:102cd000050020006033b8000440e10005c8e100b1
:102ce00006d0e10007d8e1000a00390032002000d8
:102cf0000402d0008582d2000683d2008783d200ee
:102d00000201e900faff3a000040e800f54f5000e8
:102d1000f1ff3a00e0579f00ef519700dfaa9700bc
:102d20000302fb00850f520002003d00e5579f00a3
:102d3000040037005fab9700840f530001003d0093
:102d4000d4af9f009fb39700e08f53000400320080
:102d500063826600020032008703e90097b79f0094
:102d60000400240004826600090032001fb09700ae
:102d7000dfa89700810f50000300340001005000cd
:102d800090b79f00020037000001eb0092b79f0050
:102d9000ef5197008002eb000302fb00c5a79f00e4
:102da0001fb39700840f5300020034000402530045
:102db000c4a79f006482660045003200e28266007c
:102dc00061826600e08f520011003200bc02900068
:102dd0000504b200080032009c027800b6c2b300bd
:102de000e00f52000100320006c3e800864a780076
:102df000050ee80015003700b0022000e00f520079
:102e0000010032000080e8008c0078000c003700e0
:102e1000e00f52000e0032003c0290000404b200a9
:102e2000050032001c02780005c2b300054a780094
:102e3000040ee800050037008c0078000002200036
:102e400054010700e10f4000010032000e07e800c6
:102e5000cfa39700e08f53006300320098b79f0024
:102e6000a9b79f00bab79f00cbb79f0004c3b300b8
:102e700087047800bc0290000504b2000400320010
:102e80009c027800844a7800050ee80007003700ad
:102e900084bf9f008c007800000320003d010700e4
:102ea0000fba9700e10f4000010032000e07e80062
:102eb0008904e900efff3a00c9a79f001fb49700fb
:102ec000afb497003fb59700cfb5970046003700e5
:102ed000cfa09700e08f50001e003200688266008d
:102ee0001c003a0098b79f00a9b79f00bab79f008f
:102ef000cbb79f00cfa4970004c2b300bc029000e0
:102f00000504b200040032009c027800844a780074
:102f1000050ee8000700370084bf9f008c00780092
:102f2000000220001b0107000fba9700e10f4000cc
:102f3000010032000e07e8008904e900efff3a00c3
:102f4000c9a79f001fb49700afb497003fb5970083
:102f5000cfb59700e282660061826600e08f520082
:102f600011003200bc0290000504b20008003200db
:102f70009c027800b6c2b300e00f5200010032009c
:102f800006c3e800864a7800050ee8001500370001
:102f9000b0022000e00f5200010032000080e80083
:102fa0008c0078000c003700e00f52000e00320059
:102fb0003c0290000404b200050032001c027800bc
:102fc00005c2b300054a7800040ee800050037008a
:102fd0008c00780000022000ee000700e10f4000a6
:102fe000010032000e07e800dfa89700e5db2100b2
:102ff0000102e90098b79f00a9b79f00bab79f00e8
:10300000cbb79f004221dd006323b900929f9f0050
:103010004322dd008601780085024200839f9f00e5
:10302000f59f9f00708266008d027800f48f9f00ec
:103030000502b200e58f9f00a3003700dfa89700cc
:103040001fa997008100e90003042000d1af9f0071
:10305000830f51007300320003003c00e00f510069
:10306000080032007e003700040820009faa970065
:10307000848f520056003200040c2000848f5200ce
:1030800077003a00e08f56001f003d007f9b9700bd
:103090001fb09700afb097003fb19700cfb1970036
:1030a0003604be002605be000802be000a03be00ac
:1030b0002b0407000802be000a03be00e0579f0071
:1030c0000000fb00cf80de00010178008201780063
:1030d0008c0407001fb29700afb297003fb3970070
:1030e000cfb397000002520081825a0002035b00b6
:1030f00083835b0094b79f00a5b79f00b6b79f007e
:10310000c7b79f002e003700ff8a9700e08f52005c
:10311000220032007f9b97001fb29700afb297004a
:103120003604be002605be000400be0084bf9f001a
:10313000f5b79f000801be0031f707000801be0087
:10314000e0579f000000fb00cf80de005303070024
:103150000fba9700ffb297000001520081815a0018
:103160000002eb00a29f9f00b39f9f00d49f9f008f
:103170008001eb00c39f9f002f989700bf98970096
:103180004f999700df99970090b79f00a1b79f00d4
:10319000b2b79f00c3b79f0009003700ff989700a0
:1031a0001fb1970011027800110009000481d800b6
:1031b000a4002000110009000480d800e1579f00fe
:1031c000ef5197000343b000e3579f0024003700fe
:1031d000f4e62100ef8a9700e08f520001003200f0
:1031e000e4e521001fb09700afb097003fb1970012
:1031f000cfb197001f9b97000603e900050033003d
:103200008301d1000281d3008180d3000080d300ec
:10321000f9ff37006f00600064407800e0579f00be
:103220000f0037001fb29700afb297003fb397006f
:10323000cfb397000f9897000000e9000500330016
:103240008703d1000683d3008582d3000482d30094
:10325000f9ff3700674262000443b000e4579f0063
:103260003c0290000404b200070032009c02780087
:103270006f529700844a7800050ee800e04f520034
:1032800007003a0007003700ef5097000100fb00ed
:103290008c0078003f000700e10f40000100320081
:1032a0000e07e8001f9997008f9997007f9a970063
:1032b00064015100e381510068025200929f9f0017
:1032c000839f9f00f49f9f00dfaa9700e08f52002a
:1032d0005aff3a001fb49700afb497003fb597006c
:1032e000cfb59700e88666001e0032004fa3970016
:1032f000e00f53001b0034000802be000a03be00aa
:10330000cfa497000dc2b3003c0090000004b200af
:10331000040032001c0078000d487800000ee80020
:103320000d00370084bf9f00f5b79f00d6b79f0000
:10333000e7b79f008c00780000022000150007000e
:103340000fba9700ffb297005fb39700efb39700f3
:10335000e10f4000010032000e07e8008904e90097
:10336000e9ff3a00ef9b970017407800e0579f0075
:10337000e04f500022fa3a000e0078004f07780024
:103380004f06be004f05be004f04be00ef05b10062
:1033900000000600889fbe00010478008084eb00d6
:1033a00038029000e20262003b0032000403780021
:1033b000980290000620b20002003a00e08f52000e
:1033c00035003a000490a00080047800340498008e
:1033d000f90fb200e08f520002003a00a8029000fc
:1033e000050c7800ea8f540005003a000408b2008a
:1033f00003003a0088007800d0002000e5ff0700b5
:1034000018029000d8029000850f52000b00320085
:103410000402e80015c0b3001404980018027800f4
:10342000094a7800040ce800e4ea2100054a780023
:10343000ea8f540018003a00050037000940780070
:103440008800780017000700800478001200370019
:10345000380290000410b2000f00320018019000f2
:10346000a80090004800900034f407001802900073
:10347000840f500004003200380290000403b300af
:10348000340498008084eb000002eb0014049800e0
:1034900028029000040c7800090078004f04be0058
:1034a000000006000200fa00889fbe0001047800b8
:1034b000a0ff9f0038029000840278000504b2004b
:1034c000020032000000fb0035003700e20262001b
:1034d00005003a000403b300150498003404980072
:1034e0000080eb002e003700d8049000e08f5400dd
:1034f00006003a0012002000e680570048009000c5
:103500000ef407001904980023003700a802900069
:10351000e08f520008003a0025eb21000430a000a3
:1035200025049800050c780034049800250020003c
:10353000550498001504980018019000a800900008
:1035400048009000fdf30700280290008082eb0005
:1035500015049800affa9700054a7800040ce800bb
:103560002ffa9700ea4f52000b003a003802900001
:103570000410b2000800320018019000a80090006a
:1035800048009000edf307000002eb00a802900055
:1035900014049800050c78002ffa97000400fb0033
:1035a0004f04be000080fa000000060000c0da00f0
:1035b000000006002800fa00889fbe008a9fbe0017
:1035c0008c9fbe0007067800878669000c003b00d0
:1035d000030478008704780008f0a10009f0a10036
:1035e000840f5000858f5800860f5900890f5c00aa
:1035f000030033000cf0a20001003a000cf0a1001f
:10360000fe0007006400e1005f003200780147001f
:103610006408e100610032006c01470074855700c6
:103620003200be001201be003a04be001a05be0000
:103630001e039000be0a90008503530006003d0063
:103640000004fd008104fd000205fd008305fd006e
:103650008703ea00050378000df8a3000400320098
:1036600060041400e0841c0060051d00e0851d005e
:103670006022b8007d0320000d38e1008006eb00d9
:103680000b0039004433dd00f300b2008301730006
:1036900039003700848272000d027800e106640070
:1036a0008b85d1000a85d3008984d3000884d30098
:1036b0008703e900f7ff3b000800400089804800cd
:1036c0000a0149008b81490004003b0060001000a2
:1036d000e080180060011900e08119000358a30080
:1036e000090032008d8272008482720061026000e3
:1036f0008301d1000281d3008180d3000080d300f8
:103700000603e8001b0037000348a30017003a0037
:103710000600e000170034000603e9000d00a300d6
:10372000000048008180480002014900838149006f
:103730000348a3000f003a000600e000090034002f
:103740000603e900000040008180480002014900b2
:103750008381490001003a000003eb000348a30005
:10376000f5ff32006022b800020037008482720048
:10377000618266007500070003f0a1000cf0a7004d
:1037800003f0a000b1003700640147006408e100c5
:1037900002003a000df8a300a9003a003200be0072
:1037a0001201be00a90037008f1fd100fe020700e2
:1037b0008f87e9000000e00000000600809feb001a
:1037c000f90207008f87e9000000e0000000060012
:1037d0002800fa00889fbe008a9fbe008c9fbe0012
:1037e00003866b00850007006400e100440032009e
:1037f0006408e1004a0032006100e1004600320046
:103800006108e10049003200ec0647006000b800a2
:103810003d02be003d03be00f48657006011b800b3
:103820003d04be003d05be007d0320000b003700b7
:103830000000a0008d06e9001300320004024200df
:1038400085824a0006034b0087834b00000040003e
:10385000818048000201490083814900080252002a
:1038600089825a000a035b008b835b00f0ff3b00f8
:103870000802420089824a000a034b008b834b00f6
:103880008d06e900edff3a008482720086827200a4
:10389000f707b20087827200010032001500200095
:1038a0001e0490003e0b900006035400e63fb0005b
:1038b0000368a300070032000000a7000500a00075
:1038c0008301d1000281d3008180d3000080d30026
:1038d0000603e8008301d1000281d3008180d30078
:1038e0000080d3000002eb000482d2001700070022
:1038f00003f0a1000cf0a70003f0a0005300370074
:10390000640247006408e1004d0032003400be004c
:103910003401be00f6ff37006108e10048003200c4
:103920006011b8006000b800f1ff370003ff270006
:1039300002002000fbff3700801feb009a02070007
:103940008f87e9000000e00000000600180020005a
:1039500057002000080453000d003d000600200021
:1039600097fc2f000740e1001e00340084827200a3
:10397000610260008301d1000281d3008180d30005
:103980000080d3000804e800f8ff3a004700200058
:103990006104600005047400040464000d0032003a
:1039a00061004000e080480060014900e08149007a
:1039b00003b8a500070032000603e8006538e100ff
:1039c00004003a008301d1000281d3008180d3003a
:1039d0000080d300f87f20000830e10003003500ac
:1039e000080378006000b8006011b8004433dd00bf
:1039f000f300b20083017300000006006804470072
:103a00000294be000094be00fc0447008694be00f1
:103a10008494be0009007800ac020700080078001a
:103a2000aa02070099007800814f70000b003b004c
:103a30000800be00850207004f00b10003003700f8
:103a4000f3ff2700f2ff2f006110b9004f06be0000
:103a50004f05be004f04be000080fa0000000600c3
:103a600081037800cff607000001be006000b800b7
:103a70000478a30013003a006220e10015003e0024
:103a80000d0039008301d1000281d3008180d30071
:103a90008301d1000281d3008180d3008301d10052
:103aa0000281d3008180d3000538b000c42add0034
:103ab000f300b2008381720007f0a70003f0a000ba
:103ac00000000600f3ff2700f2ff2f006110b9008d
:103ad000fbff370003ff2700f7ff37001400fa0051
:103ae000889fbe008a9fbe008c9fbe000004be005f
:103af0000205be00680047000a90be000890be00a4
:103b0000720207000070a7000bf0a1000bf8a300e1
:103b100020003a009e0990000e099000fe009000df
:103b20006e0090009e029000344320008482520078
:103b3000c6ff32000a003c00b4fc2f000428e1005c
:103b4000140034008301d1000281d3008180d300ae
:103b50000080d3008502e800faff3a00bbff37007f
:103b6000b40020000428e10007003c0000004000f1
:103b70008180480002014900838149008502e900f3
:103b8000faff3a00b1ff37000300280002002000ce
:103b9000010037006011b8006000b800abff3700cb
:103ba000889fbe00008270000402710004827100d0
:103bb0002400320036432000c50020008383cf005c
:103bc0000a0039000541b1008283cf0007003900a7
:103bd0000541b1008183cf00040039000541b100e7
:103be0008083cf00010039000541b10085c3530037
:103bf0006022b800120032000a003b00848272008a
:103c0000610260008301d1000281d3008180d30072
:103c10000080d3000603e8008743e800f7ff3a007e
:103c20000700370000004000818048000201490081
:103c3000838149000603e9008743e900f9ff3a0060
:103c400042ff07004f04be00000006001400fa0007
:103c5000889fbe008a9fbe008c9fbe00040678002d
:103c60000004be000205be00680047000a90be00c6
:103c70000890be00150207006200e1000800be00c7
:103c80000a01be00040020000b003a001e02900052
:103c9000e43fb1006e009000fe0090000e0990001d
:103ca0009e099000f300b20005fe2300858171009b
:103cb0000bf0a70003f0a000040e780063ff3700ac
:103cc0002800fa00889fbe008a9fbe008c9fbe001d
:103cd00003866b0049ff07000028a30064003a0038
:103ce0000128a30067003a000008a30062003a0020
:103cf0000108a30065003a001e009000be08900075
:103d000081064000ed3fb100f4805700ee019000c5
:103d1000111ab8008e099000311bb8009e0990005e
:103d2000311cb800511db800f4855700460007004b
:103d3000fe0190003a0007008b85e8003e00070076
:103d40008e09900040000700ee019000340007004b
:103d50008b85e800380007008e09900040000700be
:103d60009e0990001b18b800890440000a8548008d
:103d7000fe019000340007008b85e8003800070042
:103d8000ee019000300007008e0990001b18b8006b
:103d9000890440000a8548000a98a30008003a00f8
:103da0000402420085824a0006034b0087834b00d1
:103db00008044c0089844c000a054d008d06e9007a
:103dc00084827200850273004c3add008502720025
:103dd0000100320015002000443ade001400b20059
:103de0004538de00cb45dd000b007000c540de002d
:103df000cb4ddd008b8070004549de00cb55dd00ea
:103e00000b017100c551de000d037800cffe0700e5
:103e100003f0a1000cf0a70003f0a0000bff370097
:103e20001b18b8008502400006834800e0834b0061
:103e300060044c00070037001b18b8000603400060
:103e400087834800faff37001b18b800870340003b
:103e500008844800e0844c0060054d000000060026
:103e60001b18b8000804400089844800faff370096
:103e70000108a300f2fe3a005800be005801be003f
:103e8000e3ff37000008a300edfe3a0009047800c4
:103e9000f9ff370007f0a200c6fd3700020ab9009b
:103ea000001bb9000200b8008100420081004300fd
:103eb00000000600889fbe008a9fbe003004be003e
:103ec0002005be000404440085844c0006054d0016
:103ed00087854d000898be000a90be000440e100ae
:103ee00005c8e10006d0e10007d8e100020031007a
:103ef000680040001008e8004f05be004f04be00f7
:103f0000000006001000fa00889fbe008a9fbe00d5
:103f1000110020000605be000404be003002be00f1
:103f20002003be00c4b79f00d5b79f00e6b79f002f
:103f3000f7b79f000802520089825a000a035b000b
:103f40008b835b0084bf9f0095bf9f00a6bf9f002f
:103f5000b7bf9f000498be000698be004fb29700fe
:103f6000dfb297006fb39700ffb397000820e1001e
:103f700009a8e1000ab0e1000bb8e1000100390036
:103f80008000eb004f05be00108810004f04be00fb
:103f90000080fa00000006001400fa00889fbe00ae
:103fa0008a9fbe008c9fbe000006eb003e0007000b
:103fb000ccb79f00bcb79f00acb79f009cb79f00d9
:103fc0008cb79f000605be000404be000d0420004f
:103fd0004fb39700bfb29700860343002fb29700fc
:103fe000e00f530004003d003d0007000f004000bb
:103ff000b0ff070003003700390007000f00400042
:10400000c0ff0700cfb2970095bf9f00e08f52001e
:10401000090035002b0007001400200005002000d7
:104020006033b800000072008180720002017300ea
:10403000838173001c0007000c06e8008d0f5600fa
:10404000e3ff3a001fba9700e00f520005003d0061
:104050000802be000a03be0000fe2f000f00400051
:1040600094ff07004faa9700e00f520008003a00a3
:104070000fb497009fb497002fb59700bfb5970076
:10408000d8b79f00e9b79f00fab79f008bbf9f008a
:104090000c0007004f06be004f05be004f04be00d7
:1040a0000080fa0000000600010007000000060082
:1040b00090b79f00a1b79f00b2b79f00c3b79f0002
:1040c0000000060001000700000006001fb0970076
:1040d000afb097003fb19700cfb197000000060046
:1040e0004f2bde00f9ff07008683730085824200b4
:1040f0004f23de00a7b79f008682720004024200b1
:1041000095b79f00ffaa97004f2bde0085824200e3
:104110000602720084b79f006faa97004f23de004b
:104120000402420086827200f5af9f004f18de0045
:1041300000027200e5ff0700e4af9f0000004000ae
:104140008180480002014900838149000802be00c5
:104150000a03be00d6ff070000fe2f000000060085
:10416000881f780018002000881f78008aff070049
:104170008f87e9004f04780000000600801feb00e5
:1041800085ff07008f87e90000000600889fbe00ba
:104190008a9fbe00e00f5000e08f5800e00f5900ea
:1041a000e08f59000c003d006044b8006055b80035
:1041b0000000540081805c0002015d0083815d008d
:1041c000180020001500070008003d001800070037
:1041d0000004eb00050037000004eb000f000700af
:1041e00002003d001200070018002000dcff07005d
:1041f000e00f5400060032006022b8006033b800bf
:104200000000520081805a0002015b0083815b0044
:104210004f05be004f04be0000000600e00f520034
:10422000e08f5a00e00f5b00e08f5b0000000600ab
:104230006044b8006055b8000402540085825c00f8
:1042400006035d0087835d0000000600889fbe00b6
:104250008a9fbe008c1f7800e00f5000e08f58004e
:10426000e00f5900e08f59000d003d006044b80098
:104270006055b8001c0020000000540081805c00e4
:1042800002015d0083815d000820e10009a8e100d2
:104290000ab0e1000bb8e1000d003d000800370056
:1042a0000006eb00e00f5200e08f5a00e00f5b00c9
:1042b000e08f5b0006003d006044b8006055b80028
:1042c0000402540085825c0006035d0087835d0064
:1042d000aaff0700e00f5600060032006022b80077
:1042e0006033b8000000520081805a0002015b0078
:1042f00083815b004f0678004f05be004f04be006f
:1043000000000600889fbe008a9fbe008c1f7800b8
:104310000006eb00e00f5000e08f5800e00f59005e
:10432000e08f590007003d006044b8006055b800b8
:104330001c0020000000540081805c0002015d0030
:1043400083815d00e00f5200e08f5a00e00f5b00b8
:10435000e08f5b0007003d006044b8006055b80086
:104360000c00a2000402540085825c0006035d007c
:1043700087835d007c000700e00f560006003200d6
:104380006022b8006033b8000000520081805a00fb
:1043900002015b0083815b004f0678004f05be0081
:1043a0004f04be0000000600889fbe008a9fbe002a
:1043b0008c9fbe000404be000605be00809fbe00a8
:1043c000829fbe002f000700040678000800be0090
:1043d0000a01be002b000700840678004f03be00d0
:1043e0004f02be008d4f76007fb097001300330060
:1043f000f0ff2f008b8f6b0006003b000d06660060
:104400000c00a7000a00370007f0a60010002000eb
:104410000a003700880f5200898f5a008a0f5b000c
:104420008b8f5b00030039001000200001003e006c
:104430000000200007f0a7000000ea004f06be00c1
:104440004f05be004f04be0000000600e48240009d
:104450001078a30007003200640240001178a30026
:104460003400be001401be00040032000330a70077
:10447000000006003500be001501be000330a0009c
:104480000000060005ff27000582610007003200da
:104490000428e100010032002400050006000700a6
:1044a00001003a004400050004080500020007006e
:1044b000f9ff3a00140005006f826100810270006c
:1044c00085027100850272000000060080007800fd
:1044d0005002be005003be004439de00f700b200b7
:1044e000f37f200003016100090032000218e1009f
:1044f00016003a0085017200830173008381730006
:104500000008200015003a0040002000130037008a
:1045100085017200830173008381730005003a00f6
:1045200004a8be0006a8be00100020000b00370043
:104530000201e9000402420085824a0006034b00a2
:1045400087834b000748a300f9ff32000740a00013
:1045500004a8be0006a8be0020002000800098002d
:104560009200980000000600889fbe008a9fbe004f
:104570008c9fbe000404b8000506b80089044600fc
:1045800060854e000606b8000a054600e0854e002c
:104590000706b8008b054600040eb80089044600e3
:1045a0000a854e00e0854d00050eb8000a0546005c
:1045b0008b854e00060eb8008b0546000416b80029
:1045c0000a0546008b854e000516b8008b0546008f
:1045d000041eb8008b0546000800be000a01be009c
:1045e0004f06be004f05be004f04be00000006008f
:020000040000fa
:1045f000566900006e69000000410000636300001e
:10460000656c0000657200006f6d0000657400004d
:1046100065720000206800006173000020620000e5
:10462000656500006e200000736500006c65000089
:1046300063740000656400002e0a00000d00000095
:1046400044690000737000006c610000796900002b
:104650006e6700002061000063630000656c00006d
:10466000657200006f6d00006574000065720000e7
:104670002064000061740000613a00000a0d00002f
:104680000056000052570000720000005652000011
:104690005264000000470000797200006f6d000056
:1046a00065740000657200002068000061730000fe
:1046b00020620000656500006e2000007365000048
:1046c0006c65000063740000656400002e0a000041
:1046d0000d00000044690000737000006c61000070
:1046e000796900006e6700002067000079720000a1
:1046f0006f6d0000657400006572000020640000aa
:1047000061740000613a00000a0d000000430000df
:104710006f6d00007061000073730000206800007e
:104720006173000020620000656500006e200000db
:10473000736500006c650000637400006564000030
:104740002e0a00000d000000446900007370000094
:104750006c610000796900006e6700002063000052
:104760006f6d000070610000737300002064000032
:1047700061740000613a00000a0d0000004f000063
:1047800072690000656e00007461000074690000c9
:104790006f6e000020730000656e0000736f0000f4
:1047a0007220000068610000732000006265000054
:1047b000656e000020730000656c000065630000fa
:1047c00074650000642e00000a0d00000044000023
:1047d00069730000706c000061790000696e000070
:1047e000672000006f720000696500006e740000b1
:1047f00061740000696f00006e20000064610000b9
:10480000746100003a0a00000d000000496e0000cb
:10481000636c0000696e00006f6d0000657400003d
:1048200065720000206800006173000020620000d3
:10483000656500006e200000736500006c65000077
:1048400063740000656400002e0a00000d00000083
:1048500044690000737000006c6100007969000019
:104860006e670000206900006e6300006c69000044
:104870006e6f00006d65000074650000722000001e
:1048800064610000746100003a0a00000d0000003d
:104890005261000077200000616300006365000042
:1048a0006c650000726f00006d65000074650000ab
:1048b0007220000068610000732000006265000043
:1048c000656e000020730000656c000065630000e9
:1048d00074650000642e00000a0d00000044000012
:1048e00069730000706c000061790000696e00005f
:1048f0006720000072610000772000006163000003
:10490000636500006c650000726f00006d6500005b
:104910007465000072200000646100007461000092
:104920003a0a00000d0000005261000077200000ec
:104930006d610000676e00006f6d0000657400001f
:1049400065720000206800006173000020620000b2
:10495000656500006e200000736500006c65000056
:1049600063740000656400002e0a00000d00000062
:1049700044690000737000006c61000079690000f8
:104980006e6700002072000061770000206d00005b
:10499000616700006e6f00006d65000074650000c7
:1049a0007220000064610000746100003a0a000097
:1049b0000d000000526100007720000067790000c0
:1049c000726f00006d6500007465000072200000c9
:1049d000686100007320000062650000656e0000e1
:1049e00020730000656c00006563000074650000c2
:1049f000642e00000a0d00000044000069730000ee
:104a0000706c000061790000696e00006720000092
:104a1000726100007720000067790000726f00006b
:104a20006d65000074650000722000006461000084
:104a3000746100003a0a00000d0000000a0d000039
:104a4000536c000065650000702000006861000084
:104a50007320000062650000656e00002073000096
:104a6000656c00006563000074650000640a000066
:104a70000d000000536c0000656500007020000010
:104a80002e2e00002e2000002020000020200000fc
:104a900020200000000a00000d5000007265000098
:104aa000737300002053000034200000746f000076
:104ab000206300006f6e0000746900006e750000d6
:104ac000652000000a0d0000005000007265000023
:104ad0007373000020530000342000002e2e0000cd
:104ae0002e20000020200000200000000a0d000001
:104af000576100006b6500002068000061730000d2
:104b000020620000656500006e20000073650000f3
:104b10006c65000063740000656400000a0d00000d
:104b200000570000616b0000652000002e2e000081
:104b30002e20000020200000202000002020000067
:104b4000200000000a0d0000466c000061730000a8
:104b5000682000007570000064610000746500004a
:104b6000206800006173000020620000656500009d
:104b70006e200000736500006c6500006374000027
:104b8000656400000a0d0000000a00000a0d000024
:104b90002a2a00002a4d00006f640000756c000096
:104ba00065200000524500005345000054200000dd
:104bb00066610000696c0000656400002a2a00003c
:104bc0002a2000000a0a00000d0000002a2a000026
:104bd000526500007365000074200000466100000b
:104be000696c0000656400002a2a0000000a0000c9
:104bf0000a0d0000524500005345000054200000fb
:104c00006d6f0000647500006c650000207400008a
:104c10006f200000426f00006f7400004c6f0000b6
:104c20006164000065720000204d00006f640000a8
:104c30006520000073750000636300006573000069
:104c400073660000756c00006c7900000a0a0000b1
:104c50000d0000000a0d0000535300004337000010
:104c6000313500003020000069730000206e000024
:104c70006f740000206900006e200000426f000089
:104c80006f7400004c6f00006164000065720000ea
:104c9000206d00006f640000650a00000d00000038
:104ca0000a0d000053530000433700003135000067
:104cb0003020000069730000206900006e200000b1
:104cc000426f00006f7400004c6f000061640000d0
:104cd00065720000206d00006f640000650a00002e
:104ce0000d000000466c00006173000068200000a9
:104cf000557000006461000074650000202e000003
:104d00002e2e0000004900006e200000707200008e
:104d10006f670000726500007373000020200000c0
:104d200020200000200000000a0a00000d530000af
:104d3000656c00006563000074200000746800006a
:104d400065200000424900004e2000006669000016
:104d50006c650000207400006f200000646f00008c
:104d6000776e00006c6f000061640000200a000094
:104d70000d0000000a0a00000d4600006c610000f2
:104d8000736800002057000072690000746500001d
:104d900020450000727200006f7200003a2000008f
:104da000000a00000a0d0000205000004f520000d1
:104db00020450000787000003136000020680000b7
:104dc00061720000647700006172000065200000dd
:104dd0000a0a00000d0000000a0a00000d00000091
:104de0002a2a00005570000064610000746500000c
:104df00020450000525200004f5200002a2a0000b5
:104e0000005000004f520000204500007870000064
:104e100031360000206200006f6100007264000003
:104e2000200000000d500000616300006b65000071
:104e30007473000020770000726900007474000031
:104e4000656e00003a200000000a00000a0d000014
:104e5000496d000061670000652000007772000066
:104e60006974000065200000636f00006d70000031
:104e70006c650000746500006421000021200000c2
:104e80000a0a00000d0000000a0a00000d5600008a
:104e900065720000696600006963000061740000cb
:104ea000696f00006e200000506100007373000005
:104eb0003a200000000a00000a0d00004e450000e4
:104ec0005720000053460000206c00006162000083
:104ed000656c00003a200000004900006d61000090
:104ee000676500002056000045520000494600005a
:104ef0004945000044200000200000000a0a00008c
:104f00000d2a00002a2a0000566500007269000080
:104f10006669000063610000746900006f6e000044
:104f200020460000616900006c650000642a0000f2
:104f30002a2a0000200a00000a0d0000002a0000b2
:104f40002a560000657200006966000079200000a2
:104f500046410000494c0000454400002a00000082
:104f60000a0d0000436100006c69000062720000dd
:104f700061740000696f00006e200000686100002d
:104f80007320000062650000656e00002073000061
:104f9000656c00006563000074650000640a000031
:104fa0000d000000436100006c69000062720000a7
:104fb00061740000696f00006e2000002e2e00005a
:104fc0002e200000000a00000d5000007265000055
:104fd0007373000020530000342000007768000045
:104fe000656e0000206300006f6d0000706c0000b3
:104ff0006574000065640000200a00000d000000d8
:105000000a0d0000466c000061730000682000007b
:10501000436f00006e660000696700007572000053
:1050200061740000696f00006e2000007570000060
:105030006461000074650000206800006173000076
:1050400020620000656500006e20000073650000ae
:105050006c65000063740000656400000a0d0000c8
:10506000000a00000a0d00002a2a00002a4d000054
:105070006f640000756c000065200000494e000060
:10508000464f000020660000616900006c6500006a
:10509000642a00002a2a0000200a00000a0d0000ed
:1050a000002a00002a4900006e6600006f20000000
:1050b00020460000616900006c650000642a000061
:1050c0002a0000000a0a00000d4700006574000075
:1050d000204900006e6600006f200000667200002c
:1050e0006f6d0000204d00004d370000313500008d
:1050f00030200000737500006363000065730000da
:1051000073660000756c00000a0a00000d000000c4
:105110000a0d0000466c000061730000682000006a
:10512000436f00006e660000696700007572000042
:1051300061740000696f00006e200000557000006f
:105140006461000074650000206900006e200000aa
:10515000707200006f6700007265000073730000da
:105160002e2e00002e0a00000d000000466c0000ec
:10517000736800004366000067200000557000005f
:1051800064740000202e00002e2e0000000a000093
:105190000a0d0000536500006c6500006374000098
:1051a000207400006865000020420000494e0000a5
:1051b000206300006f6e00006669000067750000e4
:1051c00072610000746900006f6e000020660000cc
:1051d000696c000065200000746f0000206400000e
:1051e0006f7700006e6c00006f61000064200000ab
:1051f0000a0d0000000a00000a0d0000466c0000c5
:10520000617300006820000057720000697400009c
:105210006520000053650000637400006f72000099
:1052200020450000727200006f7200003a200000fa
:1052300000650000727200006f72000020630000c1
:105240006f640000652000003d2000003078000001
:10525000255800000a0d0000000a00000a0d000099
:105260002a2a00002a4300006f6e000066690000d1
:105270006775000072610000746900006f6e0000c5
:10528000204900006d6100006765000020560000a5
:10529000455200004946000049450000442a0000ec
:1052a0002a2a0000200a00000a0d0000004d00001c
:1052b0004d3700003135000030200000446500000b
:1052c0006d6f00002076000031330000330a0000cb
:1052d0000d00000020200000536500006c650000f8
:1052e00063740000206d00006f640000653a0000e8
:1052f000202000000a0d00000020000020410000d6
:1053000043430000454c0000455200004f4d000053
:105310004554000045520000200a00000d00000026
:105320002020000047590000524f00004d4500006a
:1053300054450000522000002020000020200000e2
:105340000a0d000000200000204300004f4d000027
:105350005041000053530000202000002020000096
:1053600020200000200a00000d0000002020000086
:105370004f520000494500004e54000041540000c7
:10538000494f00004e200000202000000a0d0000c0
:1053900000200000204900004e4300004c4900005e
:1053a0004e4f00004d4500005445000052200000c3
:1053b000200a00000d0000002020000052410000e3
:1053c0005720000041430000434500004c450000c9
:1053d000524f00004d2000000a0d00000020000088
:1053e0002052000041570000204d000041470000be
:1053f0004e450000544f000020200000200a00000d
:105400000d00000020200000524100005720000045
:1054100047590000524f00002020000020200000cb
:10542000202000000a0d0000002000002053000092
:105430006c65000065700000202000002020000046
:105440002020000020200000200a00000d000000a5
:1054500020200000576100006b6500002020000044
:10546000202000002020000020200000202000003c
:105470000a0d000000200000204600006c610000c2
:105480007368000020550000706400006174000023
:1054900065200000200a00000d0000002020000010
:1054a000436100006c6900006272000061740000da
:1054b000696f00006e200000202000000a0d00002f
:1054c00000200000204600006c73000068430000cc
:1054d0006e66000067550000706400006174000093
:1054e000650a00000d0000002020000020200000c0
:1054f00020200000202000002020000020200000ac
:1055000020200000202000000a0d00000000000004
:105510000a0d0000000000000a0a000052650000a9
:1055200074750000726e0000696e00006720000054
:10553000746f0000206d0000616900006e200000a3
:105540006d6500006e7500000a0a00000d00000085
:10555000002000002020000020200000252e000058
:105560003166000000580000252000002e310000a8
:10557000662000002020000059250000202e000099
:1055800031660000202000002020000020200000c4
:10559000205a0000252000002e3100006600000087
:1055a00058250000202e0000316600002059000020
:1055b000252000002e310000662000005a25000042
:1055c000202e00003166000020570000252000003a
:1055d0002e31000066000000252000002e32000061
:1055e0006600000058250000202e000032660000f2
:1055f0002020000059250000202e00003266000007
:105600002020000020200000202000005a2500005b
:10561000202e000032660000005800002520000007
:105620002e320000662000002059000025200000d6
:105630002e32000066200000205a000025200000c5
:105640002e3200006620000057250000202e0000aa
:105650003266000000200000202000002020000012
:10566000202500002e3000006600000058250000b4
:1056700020300000352e00003066000020200000a1
:105680005925000020300000352e00003066000053
:105690002020000020200000202000005a250000cb
:1056a00020300000352e0000306600000058000059
:1056b000252000002e300000662000005925000043
:1056c000202e000030660000205a00002520000037
:1056d0002e3000006620000057250000202e00001c
:1056e0003066000000250000203300002e3000004e
:1056f000660a00000d000000583a00002520000056
:10570000342e000033660000205900003a250000c6
:10571000203400002e330000662000005a3a0000ba
:1057200025200000342e0000336600000a0d000022
:10573000005800003a250000203400002e330000fd
:1057400066200000593a000025200000342e000099
:1057500033660000205a00003a2500002034000083
:105760002e33000066200000573a0000202500007c
:10577000342e0000336600000a0d00000000000017
:105780002a2a00002a450000727200006f72000091
:10579000206900006e200000667500006e63000046
:1057a000746900006f6e00003a200000257300004d
:1057b0003a250000303200005820000065720000d9
:1057c00072760000616c00003d300000782500001a
:1057d000582a00002a2a0000200a00000d000000bc
:1057e000257300003a2500003032000058200000e8
:1057f00065720000723d00003078000025580000fe
:10580000005000004f52000020450000787000005a
:1058100031360000204200006f6100007264000019
:10582000200000002020000020200000457800001b
:10583000706c00006f72000065720000313600006d
:10584000204200006f6100007264000020720000be
:10585000657100007569000072650000732000002a
:10586000506f000077650000724f00006e5200001c
:1058700065730000657400000a0d00000050000010
:10588000757300006820000053350000207400008c
:105890006f200000636f00006e74000020000000a5
:1058a00020200000202000005072000065730000de
:1058b0007320000062750000747400006f6e0000b9
:1058c0002053000035200000746f000020630000aa
:1058d0006f6e0000746900006e750000652e000098
:1058e0002e2e00000a0d0000002a00002a2a0000c7
:1058f00069320000634900004f5f000065720000dc
:10590000726f000072200000636f00006465000089
:10591000203d00002030000078250000580a0000db
:105920000d00000069320000632000006572000075
:10593000726f0000723d00003078000025300000da
:1059400032580000202000000000000053450000f5
:10595000545f000052500000545f000046410000b8
:10596000494c000000530000455400005f52000005
:1059700050540000325f000046410000494c0000d6
:105980000025000064000000693200006320000070
:1059900000000000693200006320000000000000e9
:020000040000fa
:1059a0003a00fa006022b800048fbe006022b800fe
:1059b00024079800350798006022b8004407980033
:1059c000550798006022b800640798007507980092
:1059d0000400200005f82300040f9800150f98001c
:1059e0005a1b070080c02100d71b0700280a0700a8
:1059f00000427800445798004e529000e04f520009
:105a0000040032004e5190008040eb00802f2a00ad
:105a1000672007008109070000427800545798006a
:105a20005e5290000482fb006123b900e4ff2f0066
:105a3000f5ff2f000602420087824a00c6002000c0
:105a400007002000860f5200878f5a0071093e0020
:105a5000046001000c003700f2003700d901370064
:105a6000700237007f03370066043700590537009e
:105a70004c0637003f0737006b07370097073700a2
:105a80003f083700a1083700d02f2a00ae1b0700bf
:105a900000322a00ac1b070078024700840078001f
:105aa0000040eb00e20c07000042780044579800e9
:105ab0004e529000e04f52000f003a004e0a900004
